{
  "_format": "hh-sol-artifact-1",
  "contractName": "Healthcare",
  "sourceName": "contracts/Healthcare.sol",
  "abi": [
    {
      "inputs": [],
      "stateMutability": "nonpayable",
      "type": "constructor"
    },
    {
      "inputs": [
        {
          "internalType": "address",
          "name": "",
          "type": "address"
        },
        {
          "internalType": "address",
          "name": "",
          "type": "address"
        }
      ],
      "name": "accessGranted",
      "outputs": [
        {
          "internalType": "bool",
          "name": "",
          "type": "bool"
        }
      ],
      "stateMutability": "view",
      "type": "function"
    },
    {
      "inputs": [
        {
          "internalType": "string",
          "name": "_ipfsHash",
          "type": "string"
        }
      ],
      "name": "addMedicalRecord",
      "outputs": [],
      "stateMutability": "nonpayable",
      "type": "function"
    },
    {
      "inputs": [],
      "name": "admin",
      "outputs": [
        {
          "internalType": "address",
          "name": "",
          "type": "address"
        }
      ],
      "stateMutability": "view",
      "type": "function"
    },
    {
      "inputs": [
        {
          "internalType": "address",
          "name": "",
          "type": "address"
        }
      ],
      "name": "doctors",
      "outputs": [
        {
          "internalType": "string",
          "name": "licenseId",
          "type": "string"
        },
        {
          "internalType": "bool",
          "name": "verified",
          "type": "bool"
        }
      ],
      "stateMutability": "view",
      "type": "function"
    },
    {
      "inputs": [
        {
          "internalType": "address",
          "name": "_patient",
          "type": "address"
        }
      ],
      "name": "getMedicalRecords",
      "outputs": [
        {
          "components": [
            {
              "internalType": "string",
              "name": "ipfsHash",
              "type": "string"
            },
            {
              "internalType": "uint256",
              "name": "timestamp",
              "type": "uint256"
            }
          ],
          "internalType": "struct Healthcare.MedicalRecord[]",
          "name": "",
          "type": "tuple[]"
        }
      ],
      "stateMutability": "view",
      "type": "function"
    },
    {
      "inputs": [
        {
          "internalType": "address",
          "name": "_doctor",
          "type": "address"
        }
      ],
      "name": "grantAccess",
      "outputs": [],
      "stateMutability": "nonpayable",
      "type": "function"
    },
    {
      "inputs": [
        {
          "internalType": "string",
          "name": "_licenseId",
          "type": "string"
        }
      ],
      "name": "registerDoctor",
      "outputs": [],
      "stateMutability": "nonpayable",
      "type": "function"
    },
    {
      "inputs": [
        {
          "internalType": "address",
          "name": "_doctor",
          "type": "address"
        }
      ],
      "name": "revokeAccess",
      "outputs": [],
      "stateMutability": "nonpayable",
      "type": "function"
    },
    {
      "inputs": [
        {
          "internalType": "address",
          "name": "_doctor",
          "type": "address"
        }
      ],
      "name": "verifyDoctor",
      "outputs": [],
      "stateMutability": "nonpayable",
      "type": "function"
    }
  ],
  "bytecode": "0x608060405234801561001057600080fd5b50336000806101000a81548173ffffffffffffffffffffffffffffffffffffffff021916908373ffffffffffffffffffffffffffffffffffffffff1602179055506112ab806100606000396000f3fe608060405234801561001057600080fd5b50600436106100935760003560e01c8063a9583c2211610066578063a9583c221461011c578063afd8297c1461014d578063d80cb05c1461017d578063e671926a14610199578063f851a440146101b557610093565b80630ae5e73914610098578063705e06e2146100b457806385e68531146100e45780638f09ab5b14610100575b600080fd5b6100b260048036038101906100ad91906109c4565b6101d3565b005b6100ce60048036038101906100c991906109f1565b6102fa565b6040516100db9190610a4c565b60405180910390f35b6100fe60048036038101906100f991906109c4565b610329565b005b61011a60048036038101906101159190610bad565b6103c1565b005b610136600480360381019061013191906109c4565b610454565b604051610144929190610c75565b60405180910390f35b610167600480360381019061016291906109c4565b61050d565b6040516101749190610e07565b60405180910390f35b610197600480360381019061019291906109c4565b6107a1565b005b6101b360048036038101906101ae9190610bad565b61088c565b005b6101bd61092e565b6040516101ca9190610e38565b60405180910390f35b600160008273ffffffffffffffffffffffffffffffffffffffff1673ffffffffffffffffffffffffffffffffffffffff16815260200190815260200160002060010160009054906101000a900460ff16610262576040517f08c379a000000000000000000000000000000000000000000000000000000000815260040161025990610e9f565b60405180910390fd5b6001600360003373ffffffffffffffffffffffffffffffffffffffff1673ffffffffffffffffffffffffffffffffffffffff16815260200190815260200160002060008373ffffffffffffffffffffffffffffffffffffffff1673ffffffffffffffffffffffffffffffffffffffff16815260200190815260200160002060006101000a81548160ff02191690831515021790555050565b60036020528160005260406000206020528060005260406000206000915091509054906101000a900460ff1681565b6000600360003373ffffffffffffffffffffffffffffffffffffffff1673ffffffffffffffffffffffffffffffffffffffff16815260200190815260200160002060008373ffffffffffffffffffffffffffffffffffffffff1673ffffffffffffffffffffffffffffffffffffffff16815260200190815260200160002060006101000a81548160ff02191690831515021790555050565b604051806040016040528082815260200160001515815250600160003373ffffffffffffffffffffffffffffffffffffffff1673ffffffffffffffffffffffffffffffffffffffff168152602001908152602001600020600082015181600001908161042d91906110cb565b5060208201518160010160006101000a81548160ff02191690831515021790555090505050565b600160205280600052604060002060009150905080600001805461047790610eee565b80601f01602080910402602001604051908101604052809291908181526020018280546104a390610eee565b80156104f05780601f106104c5576101008083540402835291602001916104f0565b820191906000526020600020905b8154815290600101906020018083116104d357829003601f168201915b5050505050908060010160009054906101000a900460ff16905082565b606081600160003373ffffffffffffffffffffffffffffffffffffffff1673ffffffffffffffffffffffffffffffffffffffff16815260200190815260200160002060010160009054906101000a900460ff1661059f576040517f08c379a000000000000000000000000000000000000000000000000000000000815260040161059690610e9f565b60405180910390fd5b600360008273ffffffffffffffffffffffffffffffffffffffff1673ffffffffffffffffffffffffffffffffffffffff16815260200190815260200160002060003373ffffffffffffffffffffffffffffffffffffffff1673ffffffffffffffffffffffffffffffffffffffff16815260200190815260200160002060009054906101000a900460ff16610668576040517f08c379a000000000000000000000000000000000000000000000000000000000815260040161065f906111e9565b60405180910390fd5b600260008473ffffffffffffffffffffffffffffffffffffffff1673ffffffffffffffffffffffffffffffffffffffff168152602001908152602001600020805480602002602001604051908101604052809291908181526020016000905b8282101561079557838290600052602060002090600202016040518060400160405290816000820180546106fa90610eee565b80601f016020809104026020016040519081016040528092919081815260200182805461072690610eee565b80156107735780601f1061074857610100808354040283529160200191610773565b820191906000526020600020905b81548152906001019060200180831161075657829003601f168201915b50505050508152602001600182015481525050815260200190600101906106c7565b50505050915050919050565b60008054906101000a900473ffffffffffffffffffffffffffffffffffffffff1673ffffffffffffffffffffffffffffffffffffffff163373ffffffffffffffffffffffffffffffffffffffff161461082f576040517f08c379a000000000000000000000000000000000000000000000000000000000815260040161082690611255565b60405180910390fd5b60018060008373ffffffffffffffffffffffffffffffffffffffff1673ffffffffffffffffffffffffffffffffffffffff16815260200190815260200160002060010160006101000a81548160ff02191690831515021790555050565b600260003373ffffffffffffffffffffffffffffffffffffffff1673ffffffffffffffffffffffffffffffffffffffff1681526020019081526020016000206040518060400160405280838152602001428152509080600181540180825580915050600190039060005260206000209060020201600090919091909150600082015181600001908161091e91906110cb565b5060208201518160010155505050565b60008054906101000a900473ffffffffffffffffffffffffffffffffffffffff1681565b6000604051905090565b600080fd5b600080fd5b600073ffffffffffffffffffffffffffffffffffffffff82169050919050565b600061099182610966565b9050919050565b6109a181610986565b81146109ac57600080fd5b50565b6000813590506109be81610998565b92915050565b6000602082840312156109da576109d961095c565b5b60006109e8848285016109af565b91505092915050565b60008060408385031215610a0857610a0761095c565b5b6000610a16858286016109af565b9250506020610a27858286016109af565b9150509250929050565b60008115159050919050565b610a4681610a31565b82525050565b6000602082019050610a616000830184610a3d565b92915050565b600080fd5b600080fd5b6000601f19601f8301169050919050565b7f4e487b7100000000000000000000000000000000000000000000000000000000600052604160045260246000fd5b610aba82610a71565b810181811067ffffffffffffffff82111715610ad957610ad8610a82565b5b80604052505050565b6000610aec610952565b9050610af88282610ab1565b919050565b600067ffffffffffffffff821115610b1857610b17610a82565b5b610b2182610a71565b9050602081019050919050565b82818337600083830152505050565b6000610b50610b4b84610afd565b610ae2565b905082815260208101848484011115610b6c57610b6b610a6c565b5b610b77848285610b2e565b509392505050565b600082601f830112610b9457610b93610a67565b5b8135610ba4848260208601610b3d565b91505092915050565b600060208284031215610bc357610bc261095c565b5b600082013567ffffffffffffffff811115610be157610be0610961565b5b610bed84828501610b7f565b91505092915050565b600081519050919050565b600082825260208201905092915050565b60005b83811015610c30578082015181840152602081019050610c15565b60008484015250505050565b6000610c4782610bf6565b610c518185610c01565b9350610c61818560208601610c12565b610c6a81610a71565b840191505092915050565b60006040820190508181036000830152610c8f8185610c3c565b9050610c9e6020830184610a3d565b9392505050565b600081519050919050565b600082825260208201905092915050565b6000819050602082019050919050565b600082825260208201905092915050565b6000610ced82610bf6565b610cf78185610cd1565b9350610d07818560208601610c12565b610d1081610a71565b840191505092915050565b6000819050919050565b610d2e81610d1b565b82525050565b60006040830160008301518482036000860152610d518282610ce2565b9150506020830151610d666020860182610d25565b508091505092915050565b6000610d7d8383610d34565b905092915050565b6000602082019050919050565b6000610d9d82610ca5565b610da78185610cb0565b935083602082028501610db985610cc1565b8060005b85811015610df55784840389528151610dd68582610d71565b9450610de183610d85565b925060208a01995050600181019050610dbd565b50829750879550505050505092915050565b60006020820190508181036000830152610e218184610d92565b905092915050565b610e3281610986565b82525050565b6000602082019050610e4d6000830184610e29565b92915050565b7f446f63746f72206e6f7420766572696669656400000000000000000000000000600082015250565b6000610e89601383610c01565b9150610e9482610e53565b602082019050919050565b60006020820190508181036000830152610eb881610e7c565b9050919050565b7f4e487b7100000000000000000000000000000000000000000000000000000000600052602260045260246000fd5b60006002820490506001821680610f0657607f821691505b602082108103610f1957610f18610ebf565b5b50919050565b60008190508160005260206000209050919050565b60006020601f8301049050919050565b600082821b905092915050565b600060088302610f817fffffffffffffffffffffffffffffffffffffffffffffffffffffffffffffffff82610f44565b610f8b8683610f44565b95508019841693508086168417925050509392505050565b6000819050919050565b6000610fc8610fc3610fbe84610d1b565b610fa3565b610d1b565b9050919050565b6000819050919050565b610fe283610fad565b610ff6610fee82610fcf565b848454610f51565b825550505050565b600090565b61100b610ffe565b611016818484610fd9565b505050565b5b8181101561103a5761102f600082611003565b60018101905061101c565b5050565b601f82111561107f5761105081610f1f565b61105984610f34565b81016020851015611068578190505b61107c61107485610f34565b83018261101b565b50505b505050565b600082821c905092915050565b60006110a260001984600802611084565b1980831691505092915050565b60006110bb8383611091565b9150826002028217905092915050565b6110d482610bf6565b67ffffffffffffffff8111156110ed576110ec610a82565b5b6110f78254610eee565b61110282828561103e565b600060209050601f8311600181146111355760008415611123578287015190505b61112d85826110af565b865550611195565b601f19841661114386610f1f565b60005b8281101561116b57848901518255600182019150602085019450602081019050611146565b868310156111885784890151611184601f891682611091565b8355505b6001600288020188555050505b505050505050565b7f416363657373206e6f74206772616e7465640000000000000000000000000000600082015250565b60006111d3601283610c01565b91506111de8261119d565b602082019050919050565b60006020820190508181036000830152611202816111c6565b9050919050565b7f4f6e6c792061646d696e20616c6c6f7765640000000000000000000000000000600082015250565b600061123f601283610c01565b915061124a82611209565b602082019050919050565b6000602082019050818103600083015261126e81611232565b905091905056fea26469706673582212205b733de3f7e30d4d294571a1e901483bf284686300326b67a7a45b1851bc6b8e64736f6c63430008140033",
  "linkReferences": {},
  "deployedLinkReferences": {}
}